{
  "_format": "hh-sol-artifact-1",
  "contractName": "MyEpicGame",
  "sourceName": "contracts/MyEpicGame.sol",
  "abi": [
    {
      "inputs": [
        {
          "internalType": "string[]",
          "name": "characterNames",
          "type": "string[]"
        },
        {
          "internalType": "string[]",
          "name": "characterImageURIs",
          "type": "string[]"
        },
        {
          "internalType": "uint256[]",
          "name": "characterHp",
          "type": "uint256[]"
        },
        {
          "internalType": "uint256[]",
          "name": "characterAttackDmg",
          "type": "uint256[]"
        },
        {
          "internalType": "string",
          "name": "bossName",
          "type": "string"
        },
        {
          "internalType": "string",
          "name": "bossImageURI",
          "type": "string"
        },
        {
          "internalType": "uint256",
          "name": "bossHp",
          "type": "uint256"
        },
        {
          "internalType": "uint256",
          "name": "bossAttackDamage",
          "type": "uint256"
        }
      ],
      "stateMutability": "nonpayable",
      "type": "constructor"
    },
    {
      "anonymous": false,
      "inputs": [
        {
          "indexed": true,
          "internalType": "address",
          "name": "owner",
          "type": "address"
        },
        {
          "indexed": true,
          "internalType": "address",
          "name": "approved",
          "type": "address"
        },
        {
          "indexed": true,
          "internalType": "uint256",
          "name": "tokenId",
          "type": "uint256"
        }
      ],
      "name": "Approval",
      "type": "event"
    },
    {
      "anonymous": false,
      "inputs": [
        {
          "indexed": true,
          "internalType": "address",
          "name": "owner",
          "type": "address"
        },
        {
          "indexed": true,
          "internalType": "address",
          "name": "operator",
          "type": "address"
        },
        {
          "indexed": false,
          "internalType": "bool",
          "name": "approved",
          "type": "bool"
        }
      ],
      "name": "ApprovalForAll",
      "type": "event"
    },
    {
      "anonymous": false,
      "inputs": [
        {
          "indexed": false,
          "internalType": "uint256",
          "name": "newBossHp",
          "type": "uint256"
        },
        {
          "indexed": false,
          "internalType": "uint256",
          "name": "newPlayerHp",
          "type": "uint256"
        }
      ],
      "name": "AttackComplete",
      "type": "event"
    },
    {
      "anonymous": false,
      "inputs": [
        {
          "indexed": false,
          "internalType": "address",
          "name": "sender",
          "type": "address"
        },
        {
          "indexed": false,
          "internalType": "uint256",
          "name": "tokenId",
          "type": "uint256"
        },
        {
          "indexed": false,
          "internalType": "uint256",
          "name": "characterIndex",
          "type": "uint256"
        }
      ],
      "name": "CharacterNFTMinted",
      "type": "event"
    },
    {
      "anonymous": false,
      "inputs": [
        {
          "indexed": true,
          "internalType": "address",
          "name": "from",
          "type": "address"
        },
        {
          "indexed": true,
          "internalType": "address",
          "name": "to",
          "type": "address"
        },
        {
          "indexed": true,
          "internalType": "uint256",
          "name": "tokenId",
          "type": "uint256"
        }
      ],
      "name": "Transfer",
      "type": "event"
    },
    {
      "inputs": [
        {
          "internalType": "address",
          "name": "to",
          "type": "address"
        },
        {
          "internalType": "uint256",
          "name": "tokenId",
          "type": "uint256"
        }
      ],
      "name": "approve",
      "outputs": [],
      "stateMutability": "nonpayable",
      "type": "function"
    },
    {
      "inputs": [],
      "name": "attackBoss",
      "outputs": [],
      "stateMutability": "nonpayable",
      "type": "function"
    },
    {
      "inputs": [
        {
          "internalType": "address",
          "name": "owner",
          "type": "address"
        }
      ],
      "name": "balanceOf",
      "outputs": [
        {
          "internalType": "uint256",
          "name": "",
          "type": "uint256"
        }
      ],
      "stateMutability": "view",
      "type": "function"
    },
    {
      "inputs": [],
      "name": "bigBoss",
      "outputs": [
        {
          "internalType": "string",
          "name": "name",
          "type": "string"
        },
        {
          "internalType": "string",
          "name": "imageURI",
          "type": "string"
        },
        {
          "internalType": "uint256",
          "name": "hp",
          "type": "uint256"
        },
        {
          "internalType": "uint256",
          "name": "maxHp",
          "type": "uint256"
        },
        {
          "internalType": "uint256",
          "name": "attackDamage",
          "type": "uint256"
        }
      ],
      "stateMutability": "view",
      "type": "function"
    },
    {
      "inputs": [],
      "name": "checkIfUserHasNFT",
      "outputs": [
        {
          "components": [
            {
              "internalType": "uint256",
              "name": "characterIndex",
              "type": "uint256"
            },
            {
              "internalType": "string",
              "name": "name",
              "type": "string"
            },
            {
              "internalType": "string",
              "name": "imageURI",
              "type": "string"
            },
            {
              "internalType": "uint256",
              "name": "hp",
              "type": "uint256"
            },
            {
              "internalType": "uint256",
              "name": "maxHp",
              "type": "uint256"
            },
            {
              "internalType": "uint256",
              "name": "attackDamage",
              "type": "uint256"
            }
          ],
          "internalType": "struct MyEpicGame.CharacterAttributes",
          "name": "",
          "type": "tuple"
        }
      ],
      "stateMutability": "view",
      "type": "function"
    },
    {
      "inputs": [],
      "name": "getAllDefaultCharacters",
      "outputs": [
        {
          "components": [
            {
              "internalType": "uint256",
              "name": "characterIndex",
              "type": "uint256"
            },
            {
              "internalType": "string",
              "name": "name",
              "type": "string"
            },
            {
              "internalType": "string",
              "name": "imageURI",
              "type": "string"
            },
            {
              "internalType": "uint256",
              "name": "hp",
              "type": "uint256"
            },
            {
              "internalType": "uint256",
              "name": "maxHp",
              "type": "uint256"
            },
            {
              "internalType": "uint256",
              "name": "attackDamage",
              "type": "uint256"
            }
          ],
          "internalType": "struct MyEpicGame.CharacterAttributes[]",
          "name": "",
          "type": "tuple[]"
        }
      ],
      "stateMutability": "view",
      "type": "function"
    },
    {
      "inputs": [
        {
          "internalType": "uint256",
          "name": "tokenId",
          "type": "uint256"
        }
      ],
      "name": "getApproved",
      "outputs": [
        {
          "internalType": "address",
          "name": "",
          "type": "address"
        }
      ],
      "stateMutability": "view",
      "type": "function"
    },
    {
      "inputs": [],
      "name": "getBigBoss",
      "outputs": [
        {
          "components": [
            {
              "internalType": "string",
              "name": "name",
              "type": "string"
            },
            {
              "internalType": "string",
              "name": "imageURI",
              "type": "string"
            },
            {
              "internalType": "uint256",
              "name": "hp",
              "type": "uint256"
            },
            {
              "internalType": "uint256",
              "name": "maxHp",
              "type": "uint256"
            },
            {
              "internalType": "uint256",
              "name": "attackDamage",
              "type": "uint256"
            }
          ],
          "internalType": "struct MyEpicGame.BigBoss",
          "name": "",
          "type": "tuple"
        }
      ],
      "stateMutability": "view",
      "type": "function"
    },
    {
      "inputs": [
        {
          "internalType": "address",
          "name": "owner",
          "type": "address"
        },
        {
          "internalType": "address",
          "name": "operator",
          "type": "address"
        }
      ],
      "name": "isApprovedForAll",
      "outputs": [
        {
          "internalType": "bool",
          "name": "",
          "type": "bool"
        }
      ],
      "stateMutability": "view",
      "type": "function"
    },
    {
      "inputs": [
        {
          "internalType": "uint256",
          "name": "_characterIndex",
          "type": "uint256"
        }
      ],
      "name": "mintCharacterNFT",
      "outputs": [],
      "stateMutability": "nonpayable",
      "type": "function"
    },
    {
      "inputs": [],
      "name": "name",
      "outputs": [
        {
          "internalType": "string",
          "name": "",
          "type": "string"
        }
      ],
      "stateMutability": "view",
      "type": "function"
    },
    {
      "inputs": [
        {
          "internalType": "uint256",
          "name": "",
          "type": "uint256"
        }
      ],
      "name": "nftHolderAttributes",
      "outputs": [
        {
          "internalType": "uint256",
          "name": "characterIndex",
          "type": "uint256"
        },
        {
          "internalType": "string",
          "name": "name",
          "type": "string"
        },
        {
          "internalType": "string",
          "name": "imageURI",
          "type": "string"
        },
        {
          "internalType": "uint256",
          "name": "hp",
          "type": "uint256"
        },
        {
          "internalType": "uint256",
          "name": "maxHp",
          "type": "uint256"
        },
        {
          "internalType": "uint256",
          "name": "attackDamage",
          "type": "uint256"
        }
      ],
      "stateMutability": "view",
      "type": "function"
    },
    {
      "inputs": [
        {
          "internalType": "address",
          "name": "",
          "type": "address"
        }
      ],
      "name": "nftHolders",
      "outputs": [
        {
          "internalType": "uint256",
          "name": "",
          "type": "uint256"
        }
      ],
      "stateMutability": "view",
      "type": "function"
    },
    {
      "inputs": [
        {
          "internalType": "uint256",
          "name": "tokenId",
          "type": "uint256"
        }
      ],
      "name": "ownerOf",
      "outputs": [
        {
          "internalType": "address",
          "name": "",
          "type": "address"
        }
      ],
      "stateMutability": "view",
      "type": "function"
    },
    {
      "inputs": [
        {
          "internalType": "address",
          "name": "from",
          "type": "address"
        },
        {
          "internalType": "address",
          "name": "to",
          "type": "address"
        },
        {
          "internalType": "uint256",
          "name": "tokenId",
          "type": "uint256"
        }
      ],
      "name": "safeTransferFrom",
      "outputs": [],
      "stateMutability": "nonpayable",
      "type": "function"
    },
    {
      "inputs": [
        {
          "internalType": "address",
          "name": "from",
          "type": "address"
        },
        {
          "internalType": "address",
          "name": "to",
          "type": "address"
        },
        {
          "internalType": "uint256",
          "name": "tokenId",
          "type": "uint256"
        },
        {
          "internalType": "bytes",
          "name": "data",
          "type": "bytes"
        }
      ],
      "name": "safeTransferFrom",
      "outputs": [],
      "stateMutability": "nonpayable",
      "type": "function"
    },
    {
      "inputs": [
        {
          "internalType": "address",
          "name": "operator",
          "type": "address"
        },
        {
          "internalType": "bool",
          "name": "approved",
          "type": "bool"
        }
      ],
      "name": "setApprovalForAll",
      "outputs": [],
      "stateMutability": "nonpayable",
      "type": "function"
    },
    {
      "inputs": [
        {
          "internalType": "bytes4",
          "name": "interfaceId",
          "type": "bytes4"
        }
      ],
      "name": "supportsInterface",
      "outputs": [
        {
          "internalType": "bool",
          "name": "",
          "type": "bool"
        }
      ],
      "stateMutability": "view",
      "type": "function"
    },
    {
      "inputs": [],
      "name": "symbol",
      "outputs": [
        {
          "internalType": "string",
          "name": "",
          "type": "string"
        }
      ],
      "stateMutability": "view",
      "type": "function"
    },
    {
      "inputs": [
        {
          "internalType": "uint256",
          "name": "_tokenId",
          "type": "uint256"
        }
      ],
      "name": "tokenURI",
      "outputs": [
        {
          "internalType": "string",
          "name": "",
          "type": "string"
        }
      ],
      "stateMutability": "view",
      "type": "function"
    },
    {
      "inputs": [
        {
          "internalType": "address",
          "name": "from",
          "type": "address"
        },
        {
          "internalType": "address",
          "name": "to",
          "type": "address"
        },
        {
          "internalType": "uint256",
          "name": "tokenId",
          "type": "uint256"
        }
      ],
      "name": "transferFrom",
      "outputs": [],
      "stateMutability": "nonpayable",
      "type": "function"
    }
  ],
  "bytecode": "0x60806040523480156200001157600080fd5b5060405162005abd38038062005abd833981810160405281019062000037919062000a8b565b6040518060400160405280600881526020017f4f6e6550696563650000000000000000000000000000000000000000000000008152506040518060400160405280600881526020017f4f4e4550494543450000000000000000000000000000000000000000000000008152508160009081620000b4919062000e4f565b508060019081620000c6919062000e4f565b50505060005b8851811015620003ff57600c6040518060c001604052808381526020018b8481518110620000ff57620000fe62000f36565b5b602002602001015181526020018a848151811062000122576200012162000f36565b5b6020026020010151815260200189848151811062000145576200014462000f36565b5b6020026020010151815260200189848151811062000168576200016762000f36565b5b602002602001015181526020018884815181106200018b576200018a62000f36565b5b60200260200101518152509080600181540180825580915050600190039060005260206000209060060201600090919091909150600082015181600001556020820151816001019081620001e0919062000e4f565b506040820151816002019081620001f8919062000e4f565b50606082015181600301556080820151816004015560a0820151816005015550506000600c828154811062000232576200023162000f36565b5b90600052602060002090600602016040518060c001604052908160008201548152602001600182018054620002679062000c48565b80601f0160208091040260200160405190810160405280929190818152602001828054620002959062000c48565b8015620002e65780601f10620002ba57610100808354040283529160200191620002e6565b820191906000526020600020905b815481529060010190602001808311620002c857829003601f168201915b50505050508152602001600282018054620003019062000c48565b80601f01602080910402602001604051908101604052809291908181526020018280546200032f9062000c48565b8015620003805780601f10620003545761010080835404028352916020019162000380565b820191906000526020600020905b8154815290600101906020018083116200036257829003601f168201915b5050505050815260200160038201548152602001600482015481526020016005820154815250509050620003e760405180606001604052806025815260200162005a6e602591398260200151836060015184604001516200060060201b62001a1f1760201c565b50600181620003f7919062000f94565b9050620000cc565b506040518060a00160405280858152602001848152602001838152602001838152602001828152506006600082015181600001908162000440919062000e4f565b50602082015181600101908162000458919062000e4f565b50604082015181600201556060820151816003015560808201518160040155905050620005db6040518060600160405280602a815260200162005a93602a913960066000018054620004aa9062000c48565b80601f0160208091040260200160405190810160405280929190818152602001828054620004d89062000c48565b8015620005295780601f10620004fd5761010080835404028352916020019162000529565b820191906000526020600020905b8154815290600101906020018083116200050b57829003601f168201915b505050505060066002015460066001018054620005469062000c48565b80601f0160208091040260200160405190810160405280929190818152602001828054620005749062000c48565b8015620005c55780601f106200059957610100808354040283529160200191620005c5565b820191906000526020600020905b815481529060010190602001808311620005a757829003601f168201915b50505050506200060060201b62001a1f1760201c565b620005f2600b620006ac60201b62001ac11760201c565b505050505050505062001094565b620006a6848484846040516024016200061d949392919062001032565b6040516020818303038152906040527f5d1a971a000000000000000000000000000000000000000000000000000000007bffffffffffffffffffffffffffffffffffffffffffffffffffffffff19166020820180517bffffffffffffffffffffffffffffffffffffffffffffffffffffffff8381831617835250505050620006c260201b60201c565b50505050565b6001816000016000828254019250508190555050565b60008151905060006a636f6e736f6c652e6c6f679050602083016000808483855afa5050505050565b6000604051905090565b600080fd5b600080fd5b600080fd5b6000601f19601f8301169050919050565b7f4e487b7100000000000000000000000000000000000000000000000000000000600052604160045260246000fd5b6200074f8262000704565b810181811067ffffffffffffffff8211171562000771576200077062000715565b5b80604052505050565b600062000786620006eb565b905062000794828262000744565b919050565b600067ffffffffffffffff821115620007b757620007b662000715565b5b602082029050602081019050919050565b600080fd5b600080fd5b600067ffffffffffffffff821115620007f057620007ef62000715565b5b620007fb8262000704565b9050602081019050919050565b60005b83811015620008285780820151818401526020810190506200080b565b60008484015250505050565b60006200084b6200084584620007d2565b6200077a565b9050828152602081018484840111156200086a5762000869620007cd565b5b6200087784828562000808565b509392505050565b600082601f830112620008975762000896620006ff565b5b8151620008a984826020860162000834565b91505092915050565b6000620008c9620008c38462000799565b6200077a565b90508083825260208201905060208402830185811115620008ef57620008ee620007c8565b5b835b818110156200093d57805167ffffffffffffffff811115620009185762000917620006ff565b5b8086016200092789826200087f565b85526020850194505050602081019050620008f1565b5050509392505050565b600082601f8301126200095f576200095e620006ff565b5b815162000971848260208601620008b2565b91505092915050565b600067ffffffffffffffff82111562000998576200099762000715565b5b602082029050602081019050919050565b6000819050919050565b620009be81620009a9565b8114620009ca57600080fd5b50565b600081519050620009de81620009b3565b92915050565b6000620009fb620009f5846200097a565b6200077a565b9050808382526020820190506020840283018581111562000a215762000a20620007c8565b5b835b8181101562000a4e578062000a398882620009cd565b84526020840193505060208101905062000a23565b5050509392505050565b600082601f83011262000a705762000a6f620006ff565b5b815162000a82848260208601620009e4565b91505092915050565b600080600080600080600080610100898b03121562000aaf5762000aae620006f5565b5b600089015167ffffffffffffffff81111562000ad05762000acf620006fa565b5b62000ade8b828c0162000947565b985050602089015167ffffffffffffffff81111562000b025762000b01620006fa565b5b62000b108b828c0162000947565b975050604089015167ffffffffffffffff81111562000b345762000b33620006fa565b5b62000b428b828c0162000a58565b965050606089015167ffffffffffffffff81111562000b665762000b65620006fa565b5b62000b748b828c0162000a58565b955050608089015167ffffffffffffffff81111562000b985762000b97620006fa565b5b62000ba68b828c016200087f565b94505060a089015167ffffffffffffffff81111562000bca5762000bc9620006fa565b5b62000bd88b828c016200087f565b93505060c062000beb8b828c01620009cd565b92505060e062000bfe8b828c01620009cd565b9150509295985092959890939650565b600081519050919050565b7f4e487b7100000000000000000000000000000000000000000000000000000000600052602260045260246000fd5b6000600282049050600182168062000c6157607f821691505b60208210810362000c775762000c7662000c19565b5b50919050565b60008190508160005260206000209050919050565b60006020601f8301049050919050565b600082821b905092915050565b60006008830262000ce17fffffffffffffffffffffffffffffffffffffffffffffffffffffffffffffffff8262000ca2565b62000ced868362000ca2565b95508019841693508086168417925050509392505050565b6000819050919050565b600062000d3062000d2a62000d2484620009a9565b62000d05565b620009a9565b9050919050565b6000819050919050565b62000d4c8362000d0f565b62000d6462000d5b8262000d37565b84845462000caf565b825550505050565b600090565b62000d7b62000d6c565b62000d8881848462000d41565b505050565b5b8181101562000db05762000da460008262000d71565b60018101905062000d8e565b5050565b601f82111562000dff5762000dc98162000c7d565b62000dd48462000c92565b8101602085101562000de4578190505b62000dfc62000df38562000c92565b83018262000d8d565b50505b505050565b600082821c905092915050565b600062000e246000198460080262000e04565b1980831691505092915050565b600062000e3f838362000e11565b9150826002028217905092915050565b62000e5a8262000c0e565b67ffffffffffffffff81111562000e765762000e7562000715565b5b62000e82825462000c48565b62000e8f82828562000db4565b600060209050601f83116001811462000ec7576000841562000eb2578287015190505b62000ebe858262000e31565b86555062000f2e565b601f19841662000ed78662000c7d565b60005b8281101562000f015784890151825560018201915060208501945060208101905062000eda565b8683101562000f21578489015162000f1d601f89168262000e11565b8355505b6001600288020188555050505b505050505050565b7f4e487b7100000000000000000000000000000000000000000000000000000000600052603260045260246000fd5b7f4e487b7100000000000000000000000000000000000000000000000000000000600052601160045260246000fd5b600062000fa182620009a9565b915062000fae83620009a9565b925082820190508082111562000fc95762000fc862000f65565b5b92915050565b600082825260208201905092915050565b600062000fed8262000c0e565b62000ff9818562000fcf565b93506200100b81856020860162000808565b620010168162000704565b840191505092915050565b6200102c81620009a9565b82525050565b600060808201905081810360008301526200104e818762000fe0565b9050818103602083015262001064818662000fe0565b905062001075604083018562001021565b818103606083015262001089818462000fe0565b905095945050505050565b6149ca80620010a46000396000f3fe608060405234801561001057600080fd5b50600436106101375760003560e01c806395d89b41116100b8578063b953084e1161007c578063b953084e14610369578063c87b56dd14610387578063c8cf27f4146103b7578063d4f24c5b146103d5578063e985e9c5146103df578063f8b81ef71461040f57610137565b806395d89b41146102bc57806398da4c95146102da578063a22cb4651461030f578063a9c326791461032b578063b88d4fde1461034d57610137565b806323b872dd116100ff57806323b872dd146101f457806342842e0e146102105780636352211e1461022c57806370a082311461025c5780637df124a11461028c57610137565b806301ffc9a71461013c5780630665f9611461016c57806306fdde031461018a578063081812fc146101a8578063095ea7b3146101d8575b600080fd5b61015660048036038101906101519190612e2a565b61042b565b6040516101639190612e72565b60405180910390f35b61017461050d565b6040516101819190612fb3565b60405180910390f35b610192610669565b60405161019f919061301f565b60405180910390f35b6101c260048036038101906101bd919061306d565b6106fb565b6040516101cf91906130db565b60405180910390f35b6101f260048036038101906101ed9190613122565b610741565b005b61020e60048036038101906102099190613162565b610858565b005b61022a60048036038101906102259190613162565b6108b8565b005b6102466004803603810190610241919061306d565b6108d8565b60405161025391906130db565b60405180910390f35b610276600480360381019061027191906131b5565b61095e565b60405161028391906131f1565b60405180910390f35b6102a660048036038101906102a191906131b5565b610a15565b6040516102b391906131f1565b60405180910390f35b6102c4610a2d565b6040516102d1919061301f565b60405180910390f35b6102f460048036038101906102ef919061306d565b610abf565b6040516103069695949392919061320c565b60405180910390f35b610329600480360381019061032491906132a7565b610c0b565b005b610333610c21565b6040516103449594939291906132e7565b60405180910390f35b6103676004803603810190610362919061347d565b610d55565b005b610371610db7565b60405161037e9190613652565b60405180910390f35b6103a1600480360381019061039c919061306d565b610f62565b6040516103ae919061301f565b60405180910390f35b6103bf61117d565b6040516103cc9190613704565b60405180910390f35b6103dd611355565b005b6103f960048036038101906103f49190613726565b61169e565b6040516104069190612e72565b60405180910390f35b6104296004803603810190610424919061306d565b611732565b005b60007f80ac58cd000000000000000000000000000000000000000000000000000000007bffffffffffffffffffffffffffffffffffffffffffffffffffffffff1916827bffffffffffffffffffffffffffffffffffffffffffffffffffffffff191614806104f657507f5b5e139f000000000000000000000000000000000000000000000000000000007bffffffffffffffffffffffffffffffffffffffffffffffffffffffff1916827bffffffffffffffffffffffffffffffffffffffffffffffffffffffff1916145b80610506575061050582611ad7565b5b9050919050565b610515612d59565b60066040518060a001604052908160008201805461053290613795565b80601f016020809104026020016040519081016040528092919081815260200182805461055e90613795565b80156105ab5780601f10610580576101008083540402835291602001916105ab565b820191906000526020600020905b81548152906001019060200180831161058e57829003601f168201915b505050505081526020016001820180546105c490613795565b80601f01602080910402602001604051908101604052809291908181526020018280546105f090613795565b801561063d5780601f106106125761010080835404028352916020019161063d565b820191906000526020600020905b81548152906001019060200180831161062057829003601f168201915b505050505081526020016002820154815260200160038201548152602001600482015481525050905090565b60606000805461067890613795565b80601f01602080910402602001604051908101604052809291908181526020018280546106a490613795565b80156106f15780601f106106c6576101008083540402835291602001916106f1565b820191906000526020600020905b8154815290600101906020018083116106d457829003601f168201915b5050505050905090565b600061070682611b41565b6004600083815260200190815260200160002060009054906101000a900473ffffffffffffffffffffffffffffffffffffffff169050919050565b600061074c826108d8565b90508073ffffffffffffffffffffffffffffffffffffffff168373ffffffffffffffffffffffffffffffffffffffff16036107bc576040517f08c379a00000000000000000000000000000000000000000000000000000000081526004016107b390613838565b60405180910390fd5b8073ffffffffffffffffffffffffffffffffffffffff166107db611b8c565b73ffffffffffffffffffffffffffffffffffffffff16148061080a575061080981610804611b8c565b61169e565b5b610849576040517f08c379a0000000000000000000000000000000000000000000000000000000008152600401610840906138ca565b60405180910390fd5b6108538383611b94565b505050565b610869610863611b8c565b82611c4d565b6108a8576040517f08c379a000000000000000000000000000000000000000000000000000000000815260040161089f9061395c565b60405180910390fd5b6108b3838383611ce2565b505050565b6108d383838360405180602001604052806000815250610d55565b505050565b6000806108e483611fdb565b9050600073ffffffffffffffffffffffffffffffffffffffff168173ffffffffffffffffffffffffffffffffffffffff1603610955576040517f08c379a000000000000000000000000000000000000000000000000000000000815260040161094c906139c8565b60405180910390fd5b80915050919050565b60008073ffffffffffffffffffffffffffffffffffffffff168273ffffffffffffffffffffffffffffffffffffffff16036109ce576040517f08c379a00000000000000000000000000000000000000000000000000000000081526004016109c590613a5a565b60405180910390fd5b600360008373ffffffffffffffffffffffffffffffffffffffff1673ffffffffffffffffffffffffffffffffffffffff168152602001908152602001600020549050919050565b600e6020528060005260406000206000915090505481565b606060018054610a3c90613795565b80601f0160208091040260200160405190810160405280929190818152602001828054610a6890613795565b8015610ab55780601f10610a8a57610100808354040283529160200191610ab5565b820191906000526020600020905b815481529060010190602001808311610a9857829003601f168201915b5050505050905090565b600d602052806000526040600020600091509050806000015490806001018054610ae890613795565b80601f0160208091040260200160405190810160405280929190818152602001828054610b1490613795565b8015610b615780601f10610b3657610100808354040283529160200191610b61565b820191906000526020600020905b815481529060010190602001808311610b4457829003601f168201915b505050505090806002018054610b7690613795565b80601f0160208091040260200160405190810160405280929190818152602001828054610ba290613795565b8015610bef5780601f10610bc457610100808354040283529160200191610bef565b820191906000526020600020905b815481529060010190602001808311610bd257829003601f168201915b5050505050908060030154908060040154908060050154905086565b610c1d610c16611b8c565b8383612018565b5050565b6006806000018054610c3290613795565b80601f0160208091040260200160405190810160405280929190818152602001828054610c5e90613795565b8015610cab5780601f10610c8057610100808354040283529160200191610cab565b820191906000526020600020905b815481529060010190602001808311610c8e57829003601f168201915b505050505090806001018054610cc090613795565b80601f0160208091040260200160405190810160405280929190818152602001828054610cec90613795565b8015610d395780601f10610d0e57610100808354040283529160200191610d39565b820191906000526020600020905b815481529060010190602001808311610d1c57829003601f168201915b5050505050908060020154908060030154908060040154905085565b610d66610d60611b8c565b83611c4d565b610da5576040517f08c379a0000000000000000000000000000000000000000000000000000000008152600401610d9c9061395c565b60405180910390fd5b610db184848484612184565b50505050565b6060600c805480602002602001604051908101604052809291908181526020016000905b82821015610f5957838290600052602060002090600602016040518060c001604052908160008201548152602001600182018054610e1890613795565b80601f0160208091040260200160405190810160405280929190818152602001828054610e4490613795565b8015610e915780601f10610e6657610100808354040283529160200191610e91565b820191906000526020600020905b815481529060010190602001808311610e7457829003601f168201915b50505050508152602001600282018054610eaa90613795565b80601f0160208091040260200160405190810160405280929190818152602001828054610ed690613795565b8015610f235780601f10610ef857610100808354040283529160200191610f23565b820191906000526020600020905b815481529060010190602001808311610f0657829003601f168201915b50505050508152602001600382015481526020016004820154815260200160058201548152505081526020019060010190610ddb565b50505050905090565b60606000600d60008481526020019081526020016000206040518060c001604052908160008201548152602001600182018054610f9e90613795565b80601f0160208091040260200160405190810160405280929190818152602001828054610fca90613795565b80156110175780601f10610fec57610100808354040283529160200191611017565b820191906000526020600020905b815481529060010190602001808311610ffa57829003601f168201915b5050505050815260200160028201805461103090613795565b80601f016020809104026020016040519081016040528092919081815260200182805461105c90613795565b80156110a95780601f1061107e576101008083540402835291602001916110a9565b820191906000526020600020905b81548152906001019060200180831161108c57829003601f168201915b505050505081526020016003820154815260200160048201548152602001600582015481525050905060006110e182606001516121e0565b905060006110f283608001516121e0565b905060006111038460a001516121e0565b905060006111498560200151611118896121e0565b876040015187878760405160200161113596959493929190613d88565b6040516020818303038152906040526122ae565b905060008160405160200161115e9190613e79565b6040516020818303038152906040529050809650505050505050919050565b611185612d88565b6000600e60003373ffffffffffffffffffffffffffffffffffffffff1673ffffffffffffffffffffffffffffffffffffffff168152602001908152602001600020549050600081111561134457600d60008281526020019081526020016000206040518060c00160405290816000820154815260200160018201805461120a90613795565b80601f016020809104026020016040519081016040528092919081815260200182805461123690613795565b80156112835780601f1061125857610100808354040283529160200191611283565b820191906000526020600020905b81548152906001019060200180831161126657829003601f168201915b5050505050815260200160028201805461129c90613795565b80601f01602080910402602001604051908101604052809291908181526020018280546112c890613795565b80156113155780601f106112ea57610100808354040283529160200191611315565b820191906000526020600020905b8154815290600101906020018083116112f857829003601f168201915b505050505081526020016003820154815260200160048201548152602001600582015481525050915050611352565b61134c612d88565b80925050505b90565b6000600e60003373ffffffffffffffffffffffffffffffffffffffff1673ffffffffffffffffffffffffffffffffffffffff1681526020019081526020016000205490506000600d600083815260200190815260200160002090506114686040518060600160405280603c8152602001614959603c91398260010180546113db90613795565b80601f016020809104026020016040519081016040528092919081815260200182805461140790613795565b80156114545780601f1061142957610100808354040283529160200191611454565b820191906000526020600020905b81548152906001019060200180831161143757829003601f168201915b505050505083600301548460050154612445565b6115406040518060400160405280601b81526020017f426f73732025732068617320257320485020616e642025732041440000000000815250600660000180546114b190613795565b80601f01602080910402602001604051908101604052809291908181526020018280546114dd90613795565b801561152a5780601f106114ff5761010080835404028352916020019161152a565b820191906000526020600020905b81548152906001019060200180831161150d57829003601f168201915b5050505050600660020154600660040154612445565b6000816003015411611587576040517f08c379a000000000000000000000000000000000000000000000000000000000815260040161157e90613f0d565b60405180910390fd5b6000600660020154116115cf576040517f08c379a00000000000000000000000000000000000000000000000000000000081526004016115c690613f9f565b60405180910390fd5b806005015460066002015410156115f057600060066002018190555061160f565b80600501546006600201546116059190613fee565b6006600201819055505b6006600401548160030154101561162f576000816003018190555061164d565b60066004015481600301546116449190613fee565b81600301819055505b61167460405180606001604052806025815260200161489e602591396006600201546124e7565b61169a6040518060600160405280602881526020016149036028913982600301546124e7565b5050565b6000600560008473ffffffffffffffffffffffffffffffffffffffff1673ffffffffffffffffffffffffffffffffffffffff16815260200190815260200160002060008373ffffffffffffffffffffffffffffffffffffffff1673ffffffffffffffffffffffffffffffffffffffff16815260200190815260200160002060009054906101000a900460ff16905092915050565b600061173e600b612583565b905061174a3382612591565b6040518060c00160405280838152602001600c848154811061176f5761176e614022565b5b9060005260206000209060060201600101805461178b90613795565b80601f01602080910402602001604051908101604052809291908181526020018280546117b790613795565b80156118045780601f106117d957610100808354040283529160200191611804565b820191906000526020600020905b8154815290600101906020018083116117e757829003601f168201915b50505050508152602001600c848154811061182257611821614022565b5b9060005260206000209060060201600201805461183e90613795565b80601f016020809104026020016040519081016040528092919081815260200182805461186a90613795565b80156118b75780601f1061188c576101008083540402835291602001916118b7565b820191906000526020600020905b81548152906001019060200180831161189a57829003601f168201915b50505050508152602001600c84815481106118d5576118d4614022565b5b9060005260206000209060060201600301548152602001600c8481548110611900576118ff614022565b5b9060005260206000209060060201600401548152602001600c848154811061192b5761192a614022565b5b906000526020600020906006020160050154815250600d600083815260200190815260200160002060008201518160000155602082015181600101908161197291906141fd565b50604082015181600201908161198891906141fd565b50606082015181600301556080820151816004015560a082015181600501559050506119cd6040518060600160405280602e815260200161492b602e913982846125af565b80600e60003373ffffffffffffffffffffffffffffffffffffffff1673ffffffffffffffffffffffffffffffffffffffff16815260200190815260200160002081905550611a1b600b611ac1565b5050565b611abb84848484604051602401611a3994939291906142cf565b6040516020818303038152906040527f5d1a971a000000000000000000000000000000000000000000000000000000007bffffffffffffffffffffffffffffffffffffffffffffffffffffffff19166020820180517bffffffffffffffffffffffffffffffffffffffffffffffffffffffff838183161783525050505061264e565b50505050565b6001816000016000828254019250508190555050565b60007f01ffc9a7000000000000000000000000000000000000000000000000000000007bffffffffffffffffffffffffffffffffffffffffffffffffffffffff1916827bffffffffffffffffffffffffffffffffffffffffffffffffffffffff1916149050919050565b611b4a81612677565b611b89576040517f08c379a0000000000000000000000000000000000000000000000000000000008152600401611b80906139c8565b60405180910390fd5b50565b600033905090565b816004600083815260200190815260200160002060006101000a81548173ffffffffffffffffffffffffffffffffffffffff021916908373ffffffffffffffffffffffffffffffffffffffff160217905550808273ffffffffffffffffffffffffffffffffffffffff16611c07836108d8565b73ffffffffffffffffffffffffffffffffffffffff167f8c5be1e5ebec7d5bd14f71427d1e84f3dd0314c0f7b2291e5b200ac8c7c3b92560405160405180910390a45050565b600080611c59836108d8565b90508073ffffffffffffffffffffffffffffffffffffffff168473ffffffffffffffffffffffffffffffffffffffff161480611c9b5750611c9a818561169e565b5b80611cd957508373ffffffffffffffffffffffffffffffffffffffff16611cc1846106fb565b73ffffffffffffffffffffffffffffffffffffffff16145b91505092915050565b8273ffffffffffffffffffffffffffffffffffffffff16611d02826108d8565b73ffffffffffffffffffffffffffffffffffffffff1614611d58576040517f08c379a0000000000000000000000000000000000000000000000000000000008152600401611d4f9061439b565b60405180910390fd5b600073ffffffffffffffffffffffffffffffffffffffff168273ffffffffffffffffffffffffffffffffffffffff1603611dc7576040517f08c379a0000000000000000000000000000000000000000000000000000000008152600401611dbe9061442d565b60405180910390fd5b611dd483838360016126b8565b8273ffffffffffffffffffffffffffffffffffffffff16611df4826108d8565b73ffffffffffffffffffffffffffffffffffffffff1614611e4a576040517f08c379a0000000000000000000000000000000000000000000000000000000008152600401611e419061439b565b60405180910390fd5b6004600082815260200190815260200160002060006101000a81549073ffffffffffffffffffffffffffffffffffffffff02191690556001600360008573ffffffffffffffffffffffffffffffffffffffff1673ffffffffffffffffffffffffffffffffffffffff168152602001908152602001600020600082825403925050819055506001600360008473ffffffffffffffffffffffffffffffffffffffff1673ffffffffffffffffffffffffffffffffffffffff16815260200190815260200160002060008282540192505081905550816002600083815260200190815260200160002060006101000a81548173ffffffffffffffffffffffffffffffffffffffff021916908373ffffffffffffffffffffffffffffffffffffffff160217905550808273ffffffffffffffffffffffffffffffffffffffff168473ffffffffffffffffffffffffffffffffffffffff167fddf252ad1be2c89b69c2b068fc378daa952ba7f163c4a11628f55a4df523b3ef60405160405180910390a4611fd683838360016127de565b505050565b60006002600083815260200190815260200160002060009054906101000a900473ffffffffffffffffffffffffffffffffffffffff169050919050565b8173ffffffffffffffffffffffffffffffffffffffff168373ffffffffffffffffffffffffffffffffffffffff1603612086576040517f08c379a000000000000000000000000000000000000000000000000000000000815260040161207d90614499565b60405180910390fd5b80600560008573ffffffffffffffffffffffffffffffffffffffff1673ffffffffffffffffffffffffffffffffffffffff16815260200190815260200160002060008473ffffffffffffffffffffffffffffffffffffffff1673ffffffffffffffffffffffffffffffffffffffff16815260200190815260200160002060006101000a81548160ff0219169083151502179055508173ffffffffffffffffffffffffffffffffffffffff168373ffffffffffffffffffffffffffffffffffffffff167f17307eab39ab6107e8899845ad3d59bd9653f200f220920489ca2b5937696c31836040516121779190612e72565b60405180910390a3505050565b61218f848484611ce2565b61219b848484846127e4565b6121da576040517f08c379a00000000000000000000000000000000000000000000000000000000081526004016121d19061452b565b60405180910390fd5b50505050565b6060600060016121ef8461296b565b01905060008167ffffffffffffffff81111561220e5761220d613352565b5b6040519080825280601f01601f1916602001820160405280156122405781602001600182028036833780820191505090505b509050600082602001820190505b6001156122a3578080600190039150507f3031323334353637383961626364656600000000000000000000000000000000600a86061a8153600a85816122975761229661454b565b5b0494506000850361224e575b819350505050919050565b6060600082519050600081036122d65760405180602001604052806000815250915050612440565b600060036002836122e7919061457a565b6122f191906145ae565b60046122fd91906145df565b9050600060208261230e919061457a565b67ffffffffffffffff81111561232757612326613352565b5b6040519080825280601f01601f1916602001820160405280156123595781602001600182028036833780820191505090505b50905060006040518060600160405280604081526020016148c3604091399050600181016020830160005b868110156123fd5760038101905062ffffff818a015116603f8160121c168401518060081b905060ff603f83600c1c1686015116810190508060081b905060ff603f8360061c1686015116810190508060081b905060ff603f831686015116810190508060e01b90508084526004840193505050612384565b506003860660018114612417576002811461242757612432565b613d3d60f01b6002830352612432565b603d60f81b60018303525b508484525050819450505050505b919050565b6124e18484848460405160240161245f9493929190614621565b6040516020818303038152906040527ff45d7d2c000000000000000000000000000000000000000000000000000000007bffffffffffffffffffffffffffffffffffffffffffffffffffffffff19166020820180517bffffffffffffffffffffffffffffffffffffffffffffffffffffffff838183161783525050505061264e565b50505050565b61257f82826040516024016124fd929190614674565b6040516020818303038152906040527fb60e72cc000000000000000000000000000000000000000000000000000000007bffffffffffffffffffffffffffffffffffffffffffffffffffffffff19166020820180517bffffffffffffffffffffffffffffffffffffffffffffffffffffffff838183161783525050505061264e565b5050565b600081600001549050919050565b6125ab828260405180602001604052806000815250612abe565b5050565b6126498383836040516024016125c7939291906146a4565b6040516020818303038152906040527fca47c4eb000000000000000000000000000000000000000000000000000000007bffffffffffffffffffffffffffffffffffffffffffffffffffffffff19166020820180517bffffffffffffffffffffffffffffffffffffffffffffffffffffffff838183161783525050505061264e565b505050565b60008151905060006a636f6e736f6c652e6c6f679050602083016000808483855afa5050505050565b60008073ffffffffffffffffffffffffffffffffffffffff1661269983611fdb565b73ffffffffffffffffffffffffffffffffffffffff1614159050919050565b60018111156127d857600073ffffffffffffffffffffffffffffffffffffffff168473ffffffffffffffffffffffffffffffffffffffff161461274c5780600360008673ffffffffffffffffffffffffffffffffffffffff1673ffffffffffffffffffffffffffffffffffffffff16815260200190815260200160002060008282546127449190613fee565b925050819055505b600073ffffffffffffffffffffffffffffffffffffffff168373ffffffffffffffffffffffffffffffffffffffff16146127d75780600360008573ffffffffffffffffffffffffffffffffffffffff1673ffffffffffffffffffffffffffffffffffffffff16815260200190815260200160002060008282546127cf919061457a565b925050819055505b5b50505050565b50505050565b60006128058473ffffffffffffffffffffffffffffffffffffffff16612b19565b1561295e578373ffffffffffffffffffffffffffffffffffffffff1663150b7a0261282e611b8c565b8786866040518563ffffffff1660e01b81526004016128509493929190614737565b6020604051808303816000875af192505050801561288c57506040513d601f19601f820116820180604052508101906128899190614798565b60015b61290e573d80600081146128bc576040519150601f19603f3d011682016040523d82523d6000602084013e6128c1565b606091505b506000815103612906576040517f08c379a00000000000000000000000000000000000000000000000000000000081526004016128fd9061452b565b60405180910390fd5b805181602001fd5b63150b7a0260e01b7bffffffffffffffffffffffffffffffffffffffffffffffffffffffff1916817bffffffffffffffffffffffffffffffffffffffffffffffffffffffff191614915050612963565b600190505b949350505050565b600080600090507a184f03e93ff9f4daa797ed6e38ed64bf6a1f01000000000000000083106129c9577a184f03e93ff9f4daa797ed6e38ed64bf6a1f01000000000000000083816129bf576129be61454b565b5b0492506040810190505b6d04ee2d6d415b85acef81000000008310612a06576d04ee2d6d415b85acef810000000083816129fc576129fb61454b565b5b0492506020810190505b662386f26fc100008310612a3557662386f26fc100008381612a2b57612a2a61454b565b5b0492506010810190505b6305f5e1008310612a5e576305f5e1008381612a5457612a5361454b565b5b0492506008810190505b6127108310612a83576127108381612a7957612a7861454b565b5b0492506004810190505b60648310612aa65760648381612a9c57612a9b61454b565b5b0492506002810190505b600a8310612ab5576001810190505b80915050919050565b612ac88383612b3c565b612ad560008484846127e4565b612b14576040517f08c379a0000000000000000000000000000000000000000000000000000000008152600401612b0b9061452b565b60405180910390fd5b505050565b6000808273ffffffffffffffffffffffffffffffffffffffff163b119050919050565b600073ffffffffffffffffffffffffffffffffffffffff168273ffffffffffffffffffffffffffffffffffffffff1603612bab576040517f08c379a0000000000000000000000000000000000000000000000000000000008152600401612ba290614811565b60405180910390fd5b612bb481612677565b15612bf4576040517f08c379a0000000000000000000000000000000000000000000000000000000008152600401612beb9061487d565b60405180910390fd5b612c026000838360016126b8565b612c0b81612677565b15612c4b576040517f08c379a0000000000000000000000000000000000000000000000000000000008152600401612c429061487d565b60405180910390fd5b6001600360008473ffffffffffffffffffffffffffffffffffffffff1673ffffffffffffffffffffffffffffffffffffffff16815260200190815260200160002060008282540192505081905550816002600083815260200190815260200160002060006101000a81548173ffffffffffffffffffffffffffffffffffffffff021916908373ffffffffffffffffffffffffffffffffffffffff160217905550808273ffffffffffffffffffffffffffffffffffffffff16600073ffffffffffffffffffffffffffffffffffffffff167fddf252ad1be2c89b69c2b068fc378daa952ba7f163c4a11628f55a4df523b3ef60405160405180910390a4612d556000838360016127de565b5050565b6040518060a0016040528060608152602001606081526020016000815260200160008152602001600081525090565b6040518060c001604052806000815260200160608152602001606081526020016000815260200160008152602001600081525090565b6000604051905090565b600080fd5b600080fd5b60007fffffffff0000000000000000000000000000000000000000000000000000000082169050919050565b612e0781612dd2565b8114612e1257600080fd5b50565b600081359050612e2481612dfe565b92915050565b600060208284031215612e4057612e3f612dc8565b5b6000612e4e84828501612e15565b91505092915050565b60008115159050919050565b612e6c81612e57565b82525050565b6000602082019050612e876000830184612e63565b92915050565b600081519050919050565b600082825260208201905092915050565b60005b83811015612ec7578082015181840152602081019050612eac565b60008484015250505050565b6000601f19601f8301169050919050565b6000612eef82612e8d565b612ef98185612e98565b9350612f09818560208601612ea9565b612f1281612ed3565b840191505092915050565b6000819050919050565b612f3081612f1d565b82525050565b600060a0830160008301518482036000860152612f538282612ee4565b91505060208301518482036020860152612f6d8282612ee4565b9150506040830151612f826040860182612f27565b506060830151612f956060860182612f27565b506080830151612fa86080860182612f27565b508091505092915050565b60006020820190508181036000830152612fcd8184612f36565b905092915050565b600082825260208201905092915050565b6000612ff182612e8d565b612ffb8185612fd5565b935061300b818560208601612ea9565b61301481612ed3565b840191505092915050565b600060208201905081810360008301526130398184612fe6565b905092915050565b61304a81612f1d565b811461305557600080fd5b50565b60008135905061306781613041565b92915050565b60006020828403121561308357613082612dc8565b5b600061309184828501613058565b91505092915050565b600073ffffffffffffffffffffffffffffffffffffffff82169050919050565b60006130c58261309a565b9050919050565b6130d5816130ba565b82525050565b60006020820190506130f060008301846130cc565b92915050565b6130ff816130ba565b811461310a57600080fd5b50565b60008135905061311c816130f6565b92915050565b6000806040838503121561313957613138612dc8565b5b60006131478582860161310d565b925050602061315885828601613058565b9150509250929050565b60008060006060848603121561317b5761317a612dc8565b5b60006131898682870161310d565b935050602061319a8682870161310d565b92505060406131ab86828701613058565b9150509250925092565b6000602082840312156131cb576131ca612dc8565b5b60006131d98482850161310d565b91505092915050565b6131eb81612f1d565b82525050565b600060208201905061320660008301846131e2565b92915050565b600060c08201905061322160008301896131e2565b81810360208301526132338188612fe6565b905081810360408301526132478187612fe6565b905061325660608301866131e2565b61326360808301856131e2565b61327060a08301846131e2565b979650505050505050565b61328481612e57565b811461328f57600080fd5b50565b6000813590506132a18161327b565b92915050565b600080604083850312156132be576132bd612dc8565b5b60006132cc8582860161310d565b92505060206132dd85828601613292565b9150509250929050565b600060a08201905081810360008301526133018188612fe6565b905081810360208301526133158187612fe6565b905061332460408301866131e2565b61333160608301856131e2565b61333e60808301846131e2565b9695505050505050565b600080fd5b600080fd5b7f4e487b7100000000000000000000000000000000000000000000000000000000600052604160045260246000fd5b61338a82612ed3565b810181811067ffffffffffffffff821117156133a9576133a8613352565b5b80604052505050565b60006133bc612dbe565b90506133c88282613381565b919050565b600067ffffffffffffffff8211156133e8576133e7613352565b5b6133f182612ed3565b9050602081019050919050565b82818337600083830152505050565b600061342061341b846133cd565b6133b2565b90508281526020810184848401111561343c5761343b61334d565b5b6134478482856133fe565b509392505050565b600082601f83011261346457613463613348565b5b813561347484826020860161340d565b91505092915050565b6000806000806080858703121561349757613496612dc8565b5b60006134a58782880161310d565b94505060206134b68782880161310d565b93505060406134c787828801613058565b925050606085013567ffffffffffffffff8111156134e8576134e7612dcd565b5b6134f48782880161344f565b91505092959194509250565b600081519050919050565b600082825260208201905092915050565b6000819050602082019050919050565b600060c0830160008301516135446000860182612f27565b506020830151848203602086015261355c8282612ee4565b915050604083015184820360408601526135768282612ee4565b915050606083015161358b6060860182612f27565b50608083015161359e6080860182612f27565b5060a08301516135b160a0860182612f27565b508091505092915050565b60006135c8838361352c565b905092915050565b6000602082019050919050565b60006135e882613500565b6135f2818561350b565b9350836020820285016136048561351c565b8060005b85811015613640578484038952815161362185826135bc565b945061362c836135d0565b925060208a01995050600181019050613608565b50829750879550505050505092915050565b6000602082019050818103600083015261366c81846135dd565b905092915050565b600060c08301600083015161368c6000860182612f27565b50602083015184820360208601526136a48282612ee4565b915050604083015184820360408601526136be8282612ee4565b91505060608301516136d36060860182612f27565b5060808301516136e66080860182612f27565b5060a08301516136f960a0860182612f27565b508091505092915050565b6000602082019050818103600083015261371e8184613674565b905092915050565b6000806040838503121561373d5761373c612dc8565b5b600061374b8582860161310d565b925050602061375c8582860161310d565b9150509250929050565b7f4e487b7100000000000000000000000000000000000000000000000000000000600052602260045260246000fd5b600060028204905060018216806137ad57607f821691505b6020821081036137c0576137bf613766565b5b50919050565b7f4552433732313a20617070726f76616c20746f2063757272656e74206f776e6560008201527f7200000000000000000000000000000000000000000000000000000000000000602082015250565b6000613822602183612fd5565b915061382d826137c6565b604082019050919050565b6000602082019050818103600083015261385181613815565b9050919050565b7f4552433732313a20617070726f76652063616c6c6572206973206e6f7420746f60008201527f6b656e206f776e6572206f7220617070726f76656420666f7220616c6c000000602082015250565b60006138b4603d83612fd5565b91506138bf82613858565b604082019050919050565b600060208201905081810360008301526138e3816138a7565b9050919050565b7f4552433732313a2063616c6c6572206973206e6f7420746f6b656e206f776e6560008201527f72206f7220617070726f76656400000000000000000000000000000000000000602082015250565b6000613946602d83612fd5565b9150613951826138ea565b604082019050919050565b6000602082019050818103600083015261397581613939565b9050919050565b7f4552433732313a20696e76616c696420746f6b656e2049440000000000000000600082015250565b60006139b2601883612fd5565b91506139bd8261397c565b602082019050919050565b600060208201905081810360008301526139e1816139a5565b9050919050565b7f4552433732313a2061646472657373207a65726f206973206e6f74206120766160008201527f6c6964206f776e65720000000000000000000000000000000000000000000000602082015250565b6000613a44602983612fd5565b9150613a4f826139e8565b604082019050919050565b60006020820190508181036000830152613a7381613a37565b9050919050565b600081905092915050565b7f7b226e616d65223a202200000000000000000000000000000000000000000000600082015250565b6000613abb600a83613a7a565b9150613ac682613a85565b600a82019050919050565b6000613adc82612e8d565b613ae68185613a7a565b9350613af6818560208601612ea9565b80840191505092915050565b7f202d2d204e465420233a20000000000000000000000000000000000000000000600082015250565b6000613b38600b83613a7a565b9150613b4382613b02565b600b82019050919050565b7f222c20226465736372697074696f6e223a20225468697320697320616e204e4660008201527f542074686174206c6574732070656f706c6520706c617920696e20746865206760208201527f616d65204d657461766572736520536c6179657221222c2022696d616765223a60408201527f2022000000000000000000000000000000000000000000000000000000000000606082015250565b6000613bf6606283613a7a565b9150613c0182613b4e565b606282019050919050565b7f222c202261747472696275746573223a205b207b202274726169745f7479706560008201527f223a20224865616c746820506f696e7473222c202276616c7565223a20000000602082015250565b6000613c68603d83613a7a565b9150613c7382613c0c565b603d82019050919050565b7f2c20226d61785f76616c7565223a000000000000000000000000000000000000600082015250565b6000613cb4600e83613a7a565b9150613cbf82613c7e565b600e82019050919050565b7f7d2c207b202274726169745f74797065223a202241747461636b2044616d616760008201527f65222c202276616c7565223a2000000000000000000000000000000000000000602082015250565b6000613d26602d83613a7a565b9150613d3182613cca565b602d82019050919050565b7f7d205d7d00000000000000000000000000000000000000000000000000000000600082015250565b6000613d72600483613a7a565b9150613d7d82613d3c565b600482019050919050565b6000613d9382613aae565b9150613d9f8289613ad1565b9150613daa82613b2b565b9150613db68288613ad1565b9150613dc182613be9565b9150613dcd8287613ad1565b9150613dd882613c5b565b9150613de48286613ad1565b9150613def82613ca7565b9150613dfb8285613ad1565b9150613e0682613d19565b9150613e128284613ad1565b9150613e1d82613d65565b9150819050979650505050505050565b7f646174613a6170706c69636174696f6e2f6a736f6e3b6261736536342c000000600082015250565b6000613e63601d83613a7a565b9150613e6e82613e2d565b601d82019050919050565b6000613e8482613e56565b9150613e908284613ad1565b915081905092915050565b7f4572726f723a20636861726163746572206d757374206861766520485020746f60008201527f2061747461636b20626f73732e00000000000000000000000000000000000000602082015250565b6000613ef7602d83612fd5565b9150613f0282613e9b565b604082019050919050565b60006020820190508181036000830152613f2681613eea565b9050919050565b7f4572726f723a20626f7373206d757374206861766520485020746f206174746160008201527f636b20636861726163746572732e000000000000000000000000000000000000602082015250565b6000613f89602e83612fd5565b9150613f9482613f2d565b604082019050919050565b60006020820190508181036000830152613fb881613f7c565b9050919050565b7f4e487b7100000000000000000000000000000000000000000000000000000000600052601160045260246000fd5b6000613ff982612f1d565b915061400483612f1d565b925082820390508181111561401c5761401b613fbf565b5b92915050565b7f4e487b7100000000000000000000000000000000000000000000000000000000600052603260045260246000fd5b60008190508160005260206000209050919050565b60006020601f8301049050919050565b600082821b905092915050565b6000600883026140b37fffffffffffffffffffffffffffffffffffffffffffffffffffffffffffffffff82614076565b6140bd8683614076565b95508019841693508086168417925050509392505050565b6000819050919050565b60006140fa6140f56140f084612f1d565b6140d5565b612f1d565b9050919050565b6000819050919050565b614114836140df565b61412861412082614101565b848454614083565b825550505050565b600090565b61413d614130565b61414881848461410b565b505050565b5b8181101561416c57614161600082614135565b60018101905061414e565b5050565b601f8211156141b15761418281614051565b61418b84614066565b8101602085101561419a578190505b6141ae6141a685614066565b83018261414d565b50505b505050565b600082821c905092915050565b60006141d4600019846008026141b6565b1980831691505092915050565b60006141ed83836141c3565b9150826002028217905092915050565b61420682612e8d565b67ffffffffffffffff81111561421f5761421e613352565b5b6142298254613795565b614234828285614170565b600060209050601f8311600181146142675760008415614255578287015190505b61425f85826141e1565b8655506142c7565b601f19841661427586614051565b60005b8281101561429d57848901518255600182019150602085019450602081019050614278565b868310156142ba57848901516142b6601f8916826141c3565b8355505b6001600288020188555050505b505050505050565b600060808201905081810360008301526142e98187612fe6565b905081810360208301526142fd8186612fe6565b905061430c60408301856131e2565b818103606083015261431e8184612fe6565b905095945050505050565b7f4552433732313a207472616e736665722066726f6d20696e636f72726563742060008201527f6f776e6572000000000000000000000000000000000000000000000000000000602082015250565b6000614385602583612fd5565b915061439082614329565b604082019050919050565b600060208201905081810360008301526143b481614378565b9050919050565b7f4552433732313a207472616e7366657220746f20746865207a65726f2061646460008201527f7265737300000000000000000000000000000000000000000000000000000000602082015250565b6000614417602483612fd5565b9150614422826143bb565b604082019050919050565b600060208201905081810360008301526144468161440a565b9050919050565b7f4552433732313a20617070726f766520746f2063616c6c657200000000000000600082015250565b6000614483601983612fd5565b915061448e8261444d565b602082019050919050565b600060208201905081810360008301526144b281614476565b9050919050565b7f4552433732313a207472616e7366657220746f206e6f6e20455243373231526560008201527f63656976657220696d706c656d656e7465720000000000000000000000000000602082015250565b6000614515603283612fd5565b9150614520826144b9565b604082019050919050565b6000602082019050818103600083015261454481614508565b9050919050565b7f4e487b7100000000000000000000000000000000000000000000000000000000600052601260045260246000fd5b600061458582612f1d565b915061459083612f1d565b92508282019050808211156145a8576145a7613fbf565b5b92915050565b60006145b982612f1d565b91506145c483612f1d565b9250826145d4576145d361454b565b5b828204905092915050565b60006145ea82612f1d565b91506145f583612f1d565b925082820261460381612f1d565b9150828204841483151761461a57614619613fbf565b5b5092915050565b6000608082019050818103600083015261463b8187612fe6565b9050818103602083015261464f8186612fe6565b905061465e60408301856131e2565b61466b60608301846131e2565b95945050505050565b6000604082019050818103600083015261468e8185612fe6565b905061469d60208301846131e2565b9392505050565b600060608201905081810360008301526146be8186612fe6565b90506146cd60208301856131e2565b6146da60408301846131e2565b949350505050565b600081519050919050565b600082825260208201905092915050565b6000614709826146e2565b61471381856146ed565b9350614723818560208601612ea9565b61472c81612ed3565b840191505092915050565b600060808201905061474c60008301876130cc565b61475960208301866130cc565b61476660408301856131e2565b818103606083015261477881846146fe565b905095945050505050565b60008151905061479281612dfe565b92915050565b6000602082840312156147ae576147ad612dc8565b5b60006147bc84828501614783565b91505092915050565b7f4552433732313a206d696e7420746f20746865207a65726f2061646472657373600082015250565b60006147fb602083612fd5565b9150614806826147c5565b602082019050919050565b6000602082019050818103600083015261482a816147ee565b9050919050565b7f4552433732313a20746f6b656e20616c7265616479206d696e74656400000000600082015250565b6000614867601c83612fd5565b915061487282614831565b602082019050919050565b600060208201905081810360008301526148968161485a565b905091905056fe506c617965722061747461636b656420626f73732e204e657720626f73732068703a2025734142434445464748494a4b4c4d4e4f505152535455565758595a6162636465666768696a6b6c6d6e6f707172737475767778797a303132333435363738392b2f426f73732061747461636b656420706c617965722e204e657720706c617965722068703a2025730a4d696e746564204e465420772f20746f6b656e496420257320616e6420636861726163746572496e6465782025730a506c6179657220772f206368617261637465722025732061626f757420746f2061747461636b2e2048617320257320485020616e64202573204144a2646970667358221220d3895cfc89d33e1d7b1c3235c80f718f4de00530b3ce025ffdd9e7d8c34bc9f764736f6c63430008110033446f6e6520696e697469616c697a696e6720257320772f2048502025732c20696d67202573446f6e6520696e697469616c697a696e6720626f737320257320772f2048502025732c20696d67202573",
  "linkReferences": {},
  "deployedLinkReferences": {}
}